:020000040800F2
:1000000000800120D11500087D0500087F0500084B
:100010008105000883050008850500080000000030
:10002000000000000000000000000000870500083C
:1000300089050008000000008B0500088D050008F8
:1000400021160008211600082116000821160008B4
:1000500021160008211600082116000821160008A4
:100060002116000821160008211600082116000894
:100070002116000821160008211600082116000884
:1000800021160008211600082116000800000000B3
:100090000000000000000000000000002116000821
:1000A0002116000821160008211600082116000854
:1000B0002116000821160008211600082116000844
:1000C0002116000821160008211600082116000834
:1000D0002116000821160008211600080000000063
:1000E0002116000821160008211600080000000053
:1000F00000000000000000000000000021160008C1
:100100000000000021160008211600082116000832
:1001100000000000000000000000000000000000DF
:1001200021160008211600082116000821160008D3
:100130002116000800000000000000000000000080
:100140000000000000000000000000002116000870
:1001500021160008211600082116000821160008A3
:100160002116000821160008000000000000000011
:10017000000000000000000000000000000000007F
:100180000000000021160008000000000000000030
:04019000211600082C
:10019400034613F8012B002AFBD1181A01387047C3
:1001A40053B94AB9002908BF00281CBF4FF0FF31DA
:1001B4004FF0FF3000F00CB8ADF1080C6DE904CE3F
:1001C40001F05AFADDF804E0DDE9022304B07047D7
:1001D400704700BF10B5054C237833B9044B13B1F5
:1001E4000448AFF300800123237010BD0C000020ED
:1001F400000000004019000808B5034B1BB1034977
:100204000348AFF3008008BD000000001000002088
:1002140040190008F0B58BB00024059406940794A7
:10022400089409940194294B1A6B42F004021A634E
:100234001A6B02F004020192019A02941A6B42F0C2
:1002440080021A631A6B02F080020292029A0394EB
:100254001A6B42F001021A631A6B02F00102039254
:10026400039A04941A6B42F002021A631B6B03F0A4
:1002740002030493049B164F2246E021384600F003
:10028400FDFE144D22464021284600F0F7FE4FF4AF
:1002940000530593104B0693079405A90F4800F0EB
:1002A40019FEE0230593012606960794089405A9F0
:1002B400384600F00FFE40230593069607940894F1
:1002C40005A9284600F006FE0BB0F0BD0038024038
:1002D4000000024000040240000021100008024017
:1002E40008B50948094B0360094B43600023836048
:1002F400C3604FF48042026143618361C36103625E
:1003040000F0D8F908BD00BF2800002000540040C8
:10031400A086010008B50848084B03604FF4E13398
:10032400436000238360C36003610C2242618361E4
:10033400C36101F09DF808BD7C000020004400402A
:1003440030B595B03022002108A801F08DF90024C1
:100354000394049405940694079401941B4B1A6C1B
:1003640042F080521A641B6C03F080530193019B8A
:100374000294174A136823F4404343F40043136080
:10038400136803F440430293029B0225089501235A
:100394000B9310230C930E950F9410934FF4A873A2
:1003A4001193042312930723139308A800F060FA0F
:1003B4000F230393049505944FF4805306930794F5
:1003C400294603A800F0B0FC15B030BD0038024047
:1003D4000070004038B5414C2021204600F054FE06
:1003E4004FF4FA7000F008FF2021204600F04CFE84
:1003F4004FF4FA7000F000FF4021204600F044FE64
:100404004FF4FA7000F0F8FE4021204600F03CFE64
:100414004FF4FA7000F0F0FE8021204600F034FE24
:100424004FF4FA7000F0E8FE8021204600F02CFE24
:100434004FF4FA7000F0E0FE294D4021284600F008
:1004440023FE4FF4FA7000F0D7FE4021284600F056
:100454001BFE4FF4FA7000F0CFFE4021284600F056
:1004640013FE4FF4FA7000F0C7FE4021284600F056
:100474000BFE4FF4FA7000F0BFFE8021204600F01E
:1004840003FE4FF4FA7000F0B7FE8021204600F01E
:10049400FBFD4FF4FA7000F0AFFE4021204600F05F
:1004A400F3FD4FF4FA7000F0A7FE4021204600F05F
:1004B400EBFD4FF4FA7000F09FFE2021204600F07F
:1004C400E3FD4FF4FA7000F097FE2021204600F07F
:1004D400DBFD4FF4FA7000F08FFE38BD00000240DF
:1004E4000004024000B585B000F05AFEFFF728FF73
:1004F400FFF790FEFFF7F4FEFFF70CFF194C2021E5
:10050400204600F0C1FD4021204600F0BDFD8021C1
:10051400204600F0B9FD4021134800F0B5FD01ACC0
:100524002546124E0FCE0FC533682B802046FFF7A9
:100534002FFE0F4D4FF0FF3382B22146284600F0C4
:10054400C6FFFFF747FF0B4B0FCB84E80F00204695
:10055400FFF71EFE4FF0FF3382B22146284600F01B
:10056400B6FFDCE70000024000040240581900080E
:100574007C0000206C1900087047FEE7FEE7FEE7E8
:10058400FEE770477047704708B500F023FE08BDCA
:1005940000B583B0002100910C4B5A6C42F48042A8
:1005A4005A645A6C02F480420092009A01911A6CC7
:1005B40042F080521A641B6C03F080530193019B38
:1005C400072000F06BFD03B05DF804FB0038024027
:1005D40030B589B0002303930493059306930793DE
:1005E4000268154B9A4201D009B030BD002501952F
:1005F400124C236B43F002032363236B03F00203C7
:100604000193019B4FF4407303931223049301233A
:100614000593032306930423079303A9084800F0D2
:1006240059FC0295236C43F400132364236C03F4F4
:1006340000130293029BD7E70054004000380240A5
:100644000004024000B589B000230393049305938A
:10065400069307930268154B9A4202D009B05DF8DD
:1006640004FB0022019203F5FA33196C41F40031C2
:100674001964196C01F40031019101990292196B0A
:1006840041F0010119631B6B03F001030293029B08
:100694000C230393022304930592069207230793E2
:1006A40003A9034800F016FCD8E700BF004400404B
:1006B40000000240002800F0CC80F8B5044690F811
:1006C4003D30002B77D0242384F83D302268136812
:1006D40023F0010313602268136843F4004313609A
:1006E4002268136823F40043136000F0D3FB6268AC
:1006F4005A4B9A4264D85A4B98428CBF0023012328
:10070400002B40F0A880574DA5FB0035AF0C2668A0
:10071400716821F03F0141EA9541716021680B6ADB
:1007240023F03F0365684D4A95424FD87A1C134322
:100734000B622568E96921F44F4121F0FF016368E8
:10074400464A93424CD801385B00B0FBF3F00130C9
:1007540040F6FC73184278D0C0F30B030B43EB61F3
:1007640021680B6823F0C003E269206A0243134343
:100774000B6021688B6823F4034323F0FF03226991
:10078400E068024313438B602168CB6823F0FF03C6
:100794006269A06902431343CB602268136843F083
:1007A4000103136000202064202384F83D3020637B
:1007B40084F83E00F8BD80F83C30FFF709FF82E77B
:1007C400294B98428CBF0023012399E74FF496727A
:1007D40002FB07F2254DA5FB025292090132A6E75E
:1007E400A268BAB9461E03EB4307B6FBF7F6013617
:1007F400C6F30B06B6FA86F6760946BBC2B9421EA4
:1008040003EB4303B2FBF3F20132C2F30B0242F4F3
:100814000043A3E7461E03EB830707EB8707B6FBFA
:10082400F7F60136C6F30B06B6FA86F67609E4E760
:10083400421E03EB830303EB8303B2FBF3F20132A7
:10084400C2F30B0242F4404388E7042386E7012302
:1008540084E7012070470120ACE700BFA0860100B7
:100864007F841E0083DE1B43FF083D00D34D6210CE
:10087400002800F0D98170B582B00446036813F0F3
:10088400010F3BD0A64B9B6803F00C03042B2CD028
:10089400A34B9B6803F00C03082B21D06368B3F5CA
:1008A400803F4FD0B3F5A02F52D09D4B1A6822F44D
:1008B40080321A601A6822F480221A606368002B5E
:1008C40050D000F093FC0546954B1B6813F4003F91
:1008D40014D100F08BFC401B6428F5D90320AAE155
:1008E4008F4B5B6813F4800FD8D08D4B1B6813F4C7
:1008F400003F03D06368002B00F09881236813F055
:10090400020F54D0864B9B6813F00C0F3ED0844BDF
:100914009B6803F00C03082B33D0E368002B67D0EB
:10092400804B01221A6000F061FC05467C4B1B6879
:1009340013F0020F53D100F059FC401B0228F5D9E3
:10094400032078E1764A136843F480331360B5E7F3
:10095400734B1A6842F480221A601A6842F4803297
:100964001A60ABE700F042FC05466D4B1B6813F4BC
:10097400003FC3D000F03AFC401B6428F5D90320A3
:1009840059E1674B5B6813F4800FC6D1644B1B6855
:1009940013F0020F03D0E368012B40F04981604A51
:1009A400136823F0F803216943EAC1031360236841
:1009B40013F0080F40D0636963B35B4B01221A60E4
:1009C40000F014FC0546564B5B6F13F0020F33D155
:1009D40000F00CFC401B0228F5D903202BE1504AFF
:1009E400136823F0F803216943EAC1031360DEE7C7
:1009F4004C4B00221A6000F0F9FB0546484B1B687B
:100A040013F0020FD3D000F0F1FB401B0228F5D9FC
:100A1400032010E1444B00221A6000F0E7FB054676
:100A24003F4B5B6F13F0020F06D000F0DFFB401B5F
:100A34000228F5D90320FEE0236813F0040F78D0D0
:100A4400374B1B6C13F0805F0DD100230193344BA3
:100A54001A6C42F080521A641B6C03F080530193A9
:100A6400019B012500E00025304B1B6813F4807FB7
:100A740021D0A368012B32D0052B36D0284B1A6F16
:100A840022F001021A671A6F22F004021A67A3689F
:100A9400002B34D000F0AAFB0646214B1B6F13F049
:100AA400020F45D100F0A2FB801B41F2883398422B
:100AB400F3D90320BFE01D4A136843F48073136025
:100AC40000F094FB0646194B1B6813F4807FD0D1C9
:100AD40000F08CFB801B0228F5D90320ABE0104A00
:100AE400136F43F001031367D1E70D4B1A6F42F004
:100AF40004021A671A6F42F001021A67C7E700F08E
:100B040075FB0646064B1B6F13F0020F10D000F066
:100B14006DFB801B41F288339842F3D903208AE0AD
:100B24000038024000004742800E474200700040F7
:100B3400E5B9A369002B7DD0464A926802F00C0205
:100B4400082A51D0022B17D0434B00221A6000F020
:100B54004DFB04463F4B1B6813F0007F42D000F06E
:100B640045FB001B0228F5D9032064E0394A136CC5
:100B740023F080531364DCE7374B00221A6000F043
:100B840035FB0546334B1B6813F0007F06D000F09D
:100B94002DFB401B0228F5D903204CE0E369226AAF
:100BA4001343626A43EA8213A26A5208013A43EA8F
:100BB4000243E26A43EA0263264A5360264B012257
:100BC4001A6000F013FB0446224B1B6813F0007FED
:100BD40006D100F00BFB001B0228F5D903202AE004
:100BE400002028E0002026E0012B26D0194B5B686A
:100BF40003F48001E269914221D103F03F02216AAA
:100C04008A421ED1616A47F6C0721A408A421AD1DA
:100C140003F44032A16A8A4217D103F07063E26A96
:100C2400934214D1002006E001207047012002E025
:100C3400012000E0002002B070BD0120FBE701208C
:100C4400F9E70120F7E70120F5E70120F3E70120A8
:100C5400F1E700BF0038024060004742F8B52F4B6F
:100C64009B6803F00C03042B53D0082B53D12B4B5C
:100C74005A6802F03F025B6813F4800F28D0274BB8
:100C84005B68C3F3881358010021C01A61F10001A5
:100C94008E0146EA906687013C1A66EB0105E9007D
:100CA40041EA5471E000C01841F100014B0243EAEB
:100CB400D0534402204619460023FFF771FA174B1C
:100CC4005B68C3F3014301335B00B0FBF3F023E043
:100CD400124B5B68C3F388135C010025E41A65F1C9
:100CE4000005AE0146EA9466A701381B66EB0501D0
:100CF400CC0044EA5074C500E81844F100018B02AA
:100D040043EA90538402204619460023FFF748FA29
:100D1400D5E7034800E00348F8BD00BF00380240AF
:100D240000127A000024F400002800F09B8070B5C3
:100D34000D4604464F4B1B6803F00F038B4208D249
:100D4400CBB24C4A1370136803F00F038B4240F08C
:100D54008B80236813F0020F17D013F0040F04D014
:100D6400454A936843F4E0539360236813F0080FF3
:100D740004D0414A936843F4604393603E4A9368C5
:100D840023F0F003A1680B439360236813F0010F71
:100D940032D06368012B21D09A1E012A25D9364A04
:100DA400126812F0020F61D033498A6822F00302FC
:100DB40013438B6000F01AFA06462F4B9B6803F02E
:100DC4000C036268B3EB820F16D000F00FFA801B9D
:100DD40041F288339842F0D9032042E0264A12684F
:100DE40012F4003FE0D101203BE0234A126812F0E4
:100DF400007FD9D1012034E01E4B1B6803F00F03A0
:100E0400AB4207D9EAB21B4B1A701B6803F00F03FD
:100E1400AB422DD1236813F0040F06D0164A936811
:100E240023F4E053E1680B439360236813F0080F45
:100E340007D0114A936823F46043216943EAC1034C
:100E44009360FFF70BFF0C4B9B68C3F303130B4A30
:100E5400D35CD8400A4B18600A4B186800F07AF942
:100E6400002070BD012070470120FAE70120F8E757
:100E74000120F6E7003C0240003802407C190008DB
:100E84000800002004000020014B1868704700BFD0
:100E94000800002008B5FFF7F7FF044B9B68C3F375
:100EA4008223034AD35CD84008BD00BF0038024007
:100EB4008C19000808B5FFF7E7FF044B9B68C3F3E0
:100EC4004233034AD35CD84008BD00BF0038024017
:100ED4008C19000800230F2B00F2C780F0B583B0F3
:100EE40039E0042200E00022B2403A4302345F4E6B
:100EF40046F824205E4A1468EA4324EA05064F684B
:100F040017F4803F01D045EA0406594C2660646812
:100F140002EA04064F6817F4003F01D045EA0406CC
:100F2400534C6660A46802EA04064F6817F4801FF5
:100F340001D045EA04064E4CA660E46822404E689F
:100F440016F4001F01D045EA0402494CE260013363
:100F54000F2B00F2888001229A400C6804EA0205F3
:100F640032EA0404F3D14C68661E012E03D9112C15
:100F740001D0122C12D186685F000324BC4026EAFB
:100F84000406CC68BC4034438460466826EA020602
:100F94004C68C4F300129A4032434260C7685E0052
:100FA4000324B440E24327EA04078C68B4403C437A
:100FB400C4604C68022C01D0122C13D1DF0808370E
:100FC40050F827E003F007044FEA840C0F2404FAD6
:100FD4000CF42EEA040E0C6904FA0CF444EA0E0430
:100FE40040F82740046814404A6802F00302B24003
:100FF400224302604A6812F0805FA8D00022019266
:101004001C4A546C44F480445464526C02F480428C
:101014000192019A9C08A61C144A52F8267003F007
:10102400030296000F22B24027EA0207124A9042B6
:101034003FF459AF02F5806290420ED002F580620F
:1010440090420CD002F5806290420AD002F5806290
:1010540090423FF446AF072246E7012244E70222CA
:1010640042E7032240E703B0F0BD70470038014077
:10107400003C014000380240000002400AB1816196
:101084007047090481617047436931EA030301D061
:10109400816170470904816170470000074AD36881
:1010A40023F4E0631B041B0C000200F4E060034320
:1010B40043F0BF6343F40033D360704700ED00E0B6
:1010C40030B4174BDB68C3F30223C3F10704042CC9
:1010D40028BF04241D1D062D18D9033B4FF0FF35EE
:1010E40005FA04F421EA0401994005FA03F322EA1B
:1010F4000303194300280BDB0901C9B200F1604066
:1011040000F5614080F8001330BC70470023E5E728
:1011140000F00F000901C9B2024B1954F4E700BFF3
:1011240000ED00E014ED00E00138B0F1807F0AD258
:10113400064B5860064AF02182F82310002098607C
:1011440007221A6070470120704700BF10E000E0DA
:1011540000ED00E010B504460E4B18784FF47A7396
:10116400B3FBF0F30C4A1068B0FBF3F0FFF7DCFFBD
:1011740068B90F2C01D901200AE0002221464FF062
:10118400FF30FFF79DFF054B1C60002000E00120AD
:1011940010BD00BF00000020080000200400002053
:1011A40008B50B4B1A6842F400721A601A6842F4CC
:1011B40080621A601A6842F480721A600320FFF792
:1011C4006DFF0020FFF7C6FFFFF7E2F9002008BD1E
:1011D400003C0240034A1168034B1B780B44136024
:1011E400704700BFBC00002000000020014B1868BD
:1011F400704700BFBC00002038B50446FFF7F6FF77
:101204000546B4F1FF3F02D0044B1B781C44FFF7A2
:10121400EDFF401BA042FAD338BD00BF0000002000
:1012240070B504460268136923F44053C1680B4344
:10123400136183680269134342691343C2691A4301
:101244000168CB6823F4164323F00C031343CB60EB
:101254000268536923F4407381690B435361C36982
:10126400B3F5004F36D00368654A934200F09A8084
:1012740002F58062934200F09580FFF70BFE002692
:10128400051846EB06012D1846EB0101CB0043EA95
:101294005573EA001546194663689A009B0F28188F
:1012A40046EB0101FEF77CFF564DA5FB00325109C8
:1012B400642303FB11031B013233A5FB03235B09E6
:1012C40003F0F00202EB011203F00F032168134450
:1012D4008B6093E003684A4A934233D002F58062FC
:1012E40093422FD0FFF7D6FD0026051846EB0601E2
:1012F4002D1846EB0101CB0043EA5573EA0015466D
:10130400194662683346921846EB0303281846EBE5
:101314000101FEF745FF3B4DA5FB00325109642353
:1013240003FB1103DB003233A5FB03235B095A00E3
:1013340002F4F87202EB011203F00703216813446C
:101344008B605BE0FFF7B6FD0026051846EB06014F
:101354002D1846EB0101CB0043EA5573EA0015460C
:10136400194662683346921846EB0303281846EB85
:101374000101FEF715FF234DA5FB0032510964233B
:1013840003FB1103DB003233A5FB03235B095A0083
:1013940002F4F87202EB011203F00703216813440C
:1013A4008B602BE0FFF786FD0026051846EB06014F
:1013B4002D1846EB0101CB0043EA5573EA001546AC
:1013C400194663689A009B0F281846EB0101FEF743
:1013D400E7FE0C4DA5FB00325109642303FB110306
:1013E4001B013233A5FB03235B0903F0F00202EB7C
:1013F400011203F00F03216813448B6070BD00BF1A
:10140400001001401F85EB512DE9F84305460F46B6
:1014140016469946DDF820802C68246837EA0403D0
:101424000CBF01240024B4421FD1B8F1FF3FF3D014
:10143400B8F1000F05D0FFF7D9FEA0EB0900404535
:10144400EAD92A68D36823F4D073D3602A6853692D
:1014540023F001035361202385F8393085F83A30AD
:10146400002385F83830032000E00020BDE8F8832D
:1014740058B310B5044690F839300BB3242384F8DC
:1014840039302268D36823F40053D3602046FFF731
:10149400C7FE2268136923F49043136122685369D9
:1014A40023F02A0353612268D36843F40053D360C2
:1014B4000020E063202384F8393084F83A3010BDEA
:1014C40080F83830FFF7BEF8D8E7012070472DE9DF
:1014D400F04383B01E4690F83930DBB2202B59D14B
:1014E40004460D469046002958D0002A58D090F85A
:1014F4003830012B56D0012380F838304FF00009E2
:10150400C0F83C90212380F83930FFF76FFE07467E
:10151400A4F82480A4F8268084F8389017E0009674
:101524003B46002280212046FFF76EFF00283BD176
:101534002B882268C3F30803536023690BB902356F
:1015440005E0013503E015F8012B23685A60E38CAC
:101554009BB29BB1E28C92B2013A92B2E284A3684C
:10156400B3F5805FDBD000963B4600228021204605
:10157400FFF74AFF0028E6D003200CE000963B4624
:10158400002240212046FFF73FFF78B9202384F84A
:10159400393000E0022003B0BDE8F0830120FAE70F
:1015A4000120F8E70220F6E70320F4E70320F2E73E
:1015B400054BD3F8882042F47002C3F888204FF01A
:1015C40000629A60704700BF00ED00E0DFF834D09D
:1015D400002103E00C4B5B58435004310B480C4B87
:1015E40042189A42F6D30B4A02E0002342F8043B25
:1015F400094B9A42F9D3FFF7DBFF00F011F8FEF72D
:1016040071FF704700800120A41900080000002029
:101614000C0000200C000020C0000020FEE70000A9
:1016240070B50D4D0D4C641BA4100026A64209D1C3
:101634000B4D0C4C00F082F9641BA4100026A6424A
:1016440005D170BD55F8043B98470136EEE755F8CF
:10165400043B98470136F2E79C1900089C190008DE
:101664009C190008A019000802440346934200D1C3
:10167400704703F8011BF9E72DE9F047089D04467C
:101684008C46002B40F083808A42174647D9B2FA31
:1016940082F242B1C2F1200024FA00F09140974056
:1016A40040EA010C94404FEA1748230CBCFBF8F6BF
:1016B4001FFA87FE08FB16C143EA014306FB0EF13D
:1016C400994209D9FB1806F1FF3080F0198199423B
:1016D40040F21681023E3B445B1AA4B2B3FBF8F01D
:1016E40008FB103344EA034400FB0EFEA64509D967
:1016F4003C1900F1FF3380F00581A64540F20281D8
:1017040002383C4440EA0640A4EB0E0400261DB116
:10171400D4400023C5E900433146BDE8F08702B94F
:10172400FFDEB2FA82F2002A50D1CB1B4FEA174EE9
:101734001FFA87F80126B3FBFEFC210C0EFB1C33B9
:1017440041EA034108FB0CF38B4207D979180CF1E9
:10175400FF3002D28B4200F2E9808446C91AA3B258
:10176400B1FBFEF00EFB101143EA014408FB00F844
:10177400A04507D93C1900F1FF3302D2A04500F27D
:10178400D9801846A4EB080440EA0C40BFE78B421A
:1017940009D9002D00F0B1800026C5E900013046CA
:1017A4003146BDE8F087B3FA83F6002E4AD18B4266
:1017B40002D3824200F2B880841A61EB0301012053
:1017C4008C46002DA8D0C5E9004CA5E7C2F1200342
:1017D40020FA03F6974001FA02F04FEA174ED94077
:1017E4003043030CB1FBFEF61FFA87F80EFB16110B
:1017F40043EA014306FB08F1994204FA02F409D9C9
:10180400FB1806F1FF3C80F08D80994240F28A80FB
:10181400023E3B445B1A81B2B3FBFEF00EFB103375
:1018240041EA034100FB08F38B4207D9791800F120
:10183400FF3C73D28B4271D902383944CB1A40EA47
:10184400064678E7C6F1200C03FA06F422FA0CF3F4
:101854001C4320FA0CF701FA06F34FEA144E21FA5E
:101864000CF11F433B0CB1FBFEF91FFA84F80EFB8D
:10187400191143EA014109FB08FA8A4502FA06F202
:1018840000FA06F308D9611809F1FF3048D28A45F5
:1018940046D9A9F102092144A1EB0A01BFB2B1FB67
:1018A400FEF00EFB101147EA014700FB08F8B845AB
:1018B40007D9E71900F1FF312ED2B8452CD90238E7
:1018C400274440EA0940A7EB0807A0FB02894F45DB
:1018D400C64649461AD317D05DB1B3EB0E0267EB87
:1018E400010707FA0CFCF2404CEA0202F740C5E992
:1018F400002700263146BDE8F0872E4628460BE730
:101904000646E9E61846FDE64345E5D2B8EB020E85
:1019140069EB04010138DFE70846D2E760468DE74A
:101924008146B9E7664675E730464AE7ACF1020CF2
:10193400394413E702383C4424E700BFF8B500BF3C
:10194400F8BC08BC9E467047F8B500BFF8BC08BC9C
:041954009E467047F4
:101958005061747465726E20737461727473200DB3
:101968000A0000005061747465726E20656E6473BD
:10197800200D0A000000000000000000010203041E
:0C1988000607080900000000010203042B
:08199400E8FCFF7F01000000E8
:04199C00FD01000841
:0419A000D901000861
:0C19A40001000000100000000024F4000E
:04000005080015D109
:00000001FF
